{
  "_format": "hh-sol-artifact-1",
  "contractName": "CooldownRenewal",
  "sourceName": "contracts/CooldownRenewal.sol",
  "abi": [
    {
      "inputs": [
        {
          "internalType": "uint48",
          "name": "_cooldownPeriod",
          "type": "uint48"
        }
      ],
      "stateMutability": "nonpayable",
      "type": "constructor"
    },
    {
      "inputs": [
        {
          "internalType": "uint256",
          "name": "retryAfter",
          "type": "uint256"
        }
      ],
      "name": "CooldownNotElapsed",
      "type": "error"
    },
    {
      "inputs": [
        {
          "internalType": "uint256",
          "name": "provided",
          "type": "uint256"
        },
        {
          "internalType": "uint256",
          "name": "minimum",
          "type": "uint256"
        }
      ],
      "name": "InvalidCooldownPeriod",
      "type": "error"
    },
    {
      "inputs": [],
      "name": "Unauthorized",
      "type": "error"
    },
    {
      "anonymous": false,
      "inputs": [
        {
          "indexed": false,
          "internalType": "uint48",
          "name": "oldPeriod",
          "type": "uint48"
        },
        {
          "indexed": false,
          "internalType": "uint48",
          "name": "newPeriod",
          "type": "uint48"
        }
      ],
      "name": "CooldownPeriodUpdated",
      "type": "event"
    },
    {
      "anonymous": false,
      "inputs": [
        {
          "indexed": true,
          "internalType": "address",
          "name": "subscriber",
          "type": "address"
        }
      ],
      "name": "CooldownReset",
      "type": "event"
    },
    {
      "anonymous": false,
      "inputs": [
        {
          "indexed": true,
          "internalType": "address",
          "name": "subscriber",
          "type": "address"
        },
        {
          "indexed": false,
          "internalType": "uint48",
          "name": "timestamp",
          "type": "uint48"
        }
      ],
      "name": "RenewalAttempted",
      "type": "event"
    },
    {
      "inputs": [],
      "name": "MIN_COOLDOWN",
      "outputs": [
        {
          "internalType": "uint48",
          "name": "",
          "type": "uint48"
        }
      ],
      "stateMutability": "view",
      "type": "function"
    },
    {
      "inputs": [],
      "name": "attemptRenewal",
      "outputs": [],
      "stateMutability": "nonpayable",
      "type": "function"
    },
    {
      "inputs": [],
      "name": "cooldownPeriod",
      "outputs": [
        {
          "internalType": "uint48",
          "name": "",
          "type": "uint48"
        }
      ],
      "stateMutability": "view",
      "type": "function"
    },
    {
      "inputs": [
        {
          "internalType": "address",
          "name": "_owner",
          "type": "address"
        },
        {
          "internalType": "uint48",
          "name": "_cooldownPeriod",
          "type": "uint48"
        }
      ],
      "name": "initialize",
      "outputs": [],
      "stateMutability": "nonpayable",
      "type": "function"
    },
    {
      "inputs": [
        {
          "internalType": "address",
          "name": "subscriber",
          "type": "address"
        }
      ],
      "name": "isInCooldown",
      "outputs": [
        {
          "internalType": "bool",
          "name": "",
          "type": "bool"
        }
      ],
      "stateMutability": "view",
      "type": "function"
    },
    {
      "inputs": [
        {
          "internalType": "address",
          "name": "subscriber",
          "type": "address"
        }
      ],
      "name": "nextRenewalTimestamp",
      "outputs": [
        {
          "internalType": "uint256",
          "name": "",
          "type": "uint256"
        }
      ],
      "stateMutability": "view",
      "type": "function"
    },
    {
      "inputs": [],
      "name": "owner",
      "outputs": [
        {
          "internalType": "address",
          "name": "",
          "type": "address"
        }
      ],
      "stateMutability": "view",
      "type": "function"
    },
    {
      "inputs": [
        {
          "internalType": "address",
          "name": "subscriber",
          "type": "address"
        }
      ],
      "name": "resetCooldown",
      "outputs": [],
      "stateMutability": "nonpayable",
      "type": "function"
    },
    {
      "inputs": [
        {
          "internalType": "uint48",
          "name": "newPeriod",
          "type": "uint48"
        }
      ],
      "name": "setCooldownPeriod",
      "outputs": [],
      "stateMutability": "nonpayable",
      "type": "function"
    }
  ],
  "bytecode": "0x608060405234801561001057600080fd5b5060405161079638038061079683398101604081905261002f916100b9565b61003881610050565b50600080546001600160a01b031916331790556100e8565b603c65ffffffffffff8216101561008f576040516392229dd760e01b815265ffffffffffff82166004820152603c602482015260440160405180910390fd5b6000805465ffffffffffff909216600160a01b0265ffffffffffff60a01b19909216919091179055565b6000602082840312156100cb57600080fd5b815165ffffffffffff811681146100e157600080fd5b9392505050565b61069f806100f76000396000f3fe608060405234801561001057600080fd5b50600436106100935760003560e01c80639891af6e116100665780639891af6e14610130578063b9a4e57114610138578063ef93a6b414610159578063f4b9786c1461016c578063f714cb441461017f57600080fd5b806304646a49146100985780635c361c3c146100cd5780638da5cb5b146100e25780639211ddeb1461010d575b600080fd5b6000546100b190600160a01b900465ffffffffffff1681565b60405165ffffffffffff90911681526020015b60405180910390f35b6100e06100db366004610594565b610187565b005b6000546100f5906001600160a01b031681565b6040516001600160a01b0390911681526020016100c4565b61012061011b3660046105c6565b610268565b60405190151581526020016100c4565b6100e06102c7565b61014b6101463660046105c6565b6103c7565b6040519081526020016100c4565b6100e06101673660046105c6565b610424565b6100e061017a3660046105e1565b61049d565b6100b1603c81565b6000546001600160a01b031633146101b1576040516282b42960e81b815260040160405180910390fd5b603c65ffffffffffff821610156101f1576040516392229dd760e01b815265ffffffffffff82166004820152603c60248201526044015b60405180910390fd5b6000546040805165ffffffffffff600160a01b9093048316815291831660208301527ff38153def352d935951283d8742af413216ed5b8e8d679c69a1251f14c0a82e3910160405180910390a16000805465ffffffffffff909216600160a01b0265ffffffffffff60a01b19909216919091179055565b6001600160a01b038116600090815260016020526040812054610100900465ffffffffffff1680820361029e5750600092915050565b6000546102be9065ffffffffffff600160a01b909104811690831661062a565b42109392505050565b336000908152600160205260408120805491549091429165ffffffffffff610100909204821691600160a01b90910416811580159061031e575061030b8183610643565b65ffffffffffff168365ffffffffffff16105b156103545761033865ffffffffffff80831690841661062a565b60405163e3c9f05560e01b81526004016101e891815260200190565b835460ff1965ffffffffffff8516610100021666ffffffffffffff1990911617600117845560405133907fa6fde7b1a6394e495fd548ecb7643768d9a7c0adc1afdbe94f3c3e2c81e664a6906103b990869065ffffffffffff91909116815260200190565b60405180910390a250505050565b6001600160a01b038116600090815260016020526040812054610100900465ffffffffffff168082036103fd5750600092915050565b60005461041d9065ffffffffffff600160a01b909104811690831661062a565b9392505050565b6000546001600160a01b0316331461044e576040516282b42960e81b815260040160405180910390fd5b6001600160a01b038116600081815260016020526040808220805466ffffffffffff0019169055517f99166f1af97525e8d2ff282bc45ec451cefae413f9f0ba4a4869e5537750d2989190a250565b6000546001600160a01b0316156104ec5760405162461bcd60e51b8152602060048201526013602482015272105b1c9958591e481a5b9a5d1a585b1a5e9959606a1b60448201526064016101e8565b600080546001600160a01b0319166001600160a01b03841617905561051081610514565b5050565b603c65ffffffffffff8216101561054f576040516392229dd760e01b815265ffffffffffff82166004820152603c60248201526044016101e8565b6000805465ffffffffffff909216600160a01b0265ffffffffffff60a01b19909216919091179055565b803565ffffffffffff8116811461058f57600080fd5b919050565b6000602082840312156105a657600080fd5b61041d82610579565b80356001600160a01b038116811461058f57600080fd5b6000602082840312156105d857600080fd5b61041d826105af565b600080604083850312156105f457600080fd5b6105fd836105af565b915061060b60208401610579565b90509250929050565b634e487b7160e01b600052601160045260246000fd5b8082018082111561063d5761063d610614565b92915050565b65ffffffffffff81811683821601908082111561066257610662610614565b509291505056fea26469706673582212202dbe973b9d360cda416c909fca55f8c7074c58831d4e9819fa59e094d705363964736f6c63430008140033",
  "linkReferences": {},
  "deployedLinkReferences": {}
}