{"contracts/CooldownRenewal.sol":{"CooldownRenewal":{"abi":[{"inputs":[{"internalType":"uint48","name":"_cooldownPeriod","type":"uint48"}],"stateMutability":"nonpayable","type":"constructor"},{"inputs":[{"internalType":"uint256","name":"retryAfter","type":"uint256"}],"name":"CooldownNotElapsed","type":"error"},{"inputs":[{"internalType":"uint256","name":"provided","type":"uint256"},{"internalType":"uint256","name":"minimum","type":"uint256"}],"name":"InvalidCooldownPeriod","type":"error"},{"inputs":[],"name":"Unauthorized","type":"error"},{"anonymous":false,"inputs":[{"indexed":false,"internalType":"uint48","name":"oldPeriod","type":"uint48"},{"indexed":false,"internalType":"uint48","name":"newPeriod","type":"uint48"}],"name":"CooldownPeriodUpdated","type":"event"},{"anonymous":false,"inputs":[{"indexed":true,"internalType":"address","name":"subscriber","type":"address"}],"name":"CooldownReset","type":"event"},{"anonymous":false,"inputs":[{"indexed":true,"internalType":"address","name":"subscriber","type":"address"},{"indexed":false,"internalType":"uint48","name":"timestamp","type":"uint48"}],"name":"RenewalAttempted","type":"event"},{"inputs":[],"name":"MIN_COOLDOWN","outputs":[{"internalType":"uint48","name":"","type":"uint48"}],"stateMutability":"view","type":"function"},{"inputs":[],"name":"attemptRenewal","outputs":[],"stateMutability":"nonpayable","type":"function"},{"inputs":[],"name":"cooldownPeriod","outputs":[{"internalType":"uint48","name":"","type":"uint48"}],"stateMutability":"view","type":"function"},{"inputs":[{"internalType":"address","name":"_owner","type":"address"},{"internalType":"uint48","name":"_cooldownPeriod","type":"uint48"}],"name":"initialize","outputs":[],"stateMutability":"nonpayable","type":"function"},{"inputs":[{"internalType":"address","name":"subscriber","type":"address"}],"name":"isInCooldown","outputs":[{"internalType":"bool","name":"","type":"bool"}],"stateMutability":"view","type":"function"},{"inputs":[{"internalType":"address","name":"subscriber","type":"address"}],"name":"nextRenewalTimestamp","outputs":[{"internalType":"uint256","name":"","type":"uint256"}],"stateMutability":"view","type":"function"},{"inputs":[],"name":"owner","outputs":[{"internalType":"address","name":"","type":"address"}],"stateMutability":"view","type":"function"},{"inputs":[{"internalType":"address","name":"subscriber","type":"address"}],"name":"resetCooldown","outputs":[],"stateMutability":"nonpayable","type":"function"},{"inputs":[{"internalType":"uint48","name":"newPeriod","type":"uint48"}],"name":"setCooldownPeriod","outputs":[],"stateMutability":"nonpayable","type":"function"}],"evm":{"bytecode":{"linkReferences":{},"object":"608060405234801561001057600080fd5b5060405161079638038061079683398101604081905261002f916100b9565b61003881610050565b50600080546001600160a01b031916331790556100e8565b603c65ffffffffffff8216101561008f576040516392229dd760e01b815265ffffffffffff82166004820152603c602482015260440160405180910390fd5b6000805465ffffffffffff909216600160a01b0265ffffffffffff60a01b19909216919091179055565b6000602082840312156100cb57600080fd5b815165ffffffffffff811681146100e157600080fd5b9392505050565b61069f806100f76000396000f3fe608060405234801561001057600080fd5b50600436106100935760003560e01c80639891af6e116100665780639891af6e14610130578063b9a4e57114610138578063ef93a6b414610159578063f4b9786c1461016c578063f714cb441461017f57600080fd5b806304646a49146100985780635c361c3c146100cd5780638da5cb5b146100e25780639211ddeb1461010d575b600080fd5b6000546100b190600160a01b900465ffffffffffff1681565b60405165ffffffffffff90911681526020015b60405180910390f35b6100e06100db366004610594565b610187565b005b6000546100f5906001600160a01b031681565b6040516001600160a01b0390911681526020016100c4565b61012061011b3660046105c6565b610268565b60405190151581526020016100c4565b6100e06102c7565b61014b6101463660046105c6565b6103c7565b6040519081526020016100c4565b6100e06101673660046105c6565b610424565b6100e061017a3660046105e1565b61049d565b6100b1603c81565b6000546001600160a01b031633146101b1576040516282b42960e81b815260040160405180910390fd5b603c65ffffffffffff821610156101f1576040516392229dd760e01b815265ffffffffffff82166004820152603c60248201526044015b60405180910390fd5b6000546040805165ffffffffffff600160a01b9093048316815291831660208301527ff38153def352d935951283d8742af413216ed5b8e8d679c69a1251f14c0a82e3910160405180910390a16000805465ffffffffffff909216600160a01b0265ffffffffffff60a01b19909216919091179055565b6001600160a01b038116600090815260016020526040812054610100900465ffffffffffff1680820361029e5750600092915050565b6000546102be9065ffffffffffff600160a01b909104811690831661062a565b42109392505050565b336000908152600160205260408120805491549091429165ffffffffffff610100909204821691600160a01b90910416811580159061031e575061030b8183610643565b65ffffffffffff168365ffffffffffff16105b156103545761033865ffffffffffff80831690841661062a565b60405163e3c9f05560e01b81526004016101e891815260200190565b835460ff1965ffffffffffff8516610100021666ffffffffffffff1990911617600117845560405133907fa6fde7b1a6394e495fd548ecb7643768d9a7c0adc1afdbe94f3c3e2c81e664a6906103b990869065ffffffffffff91909116815260200190565b60405180910390a250505050565b6001600160a01b038116600090815260016020526040812054610100900465ffffffffffff168082036103fd5750600092915050565b60005461041d9065ffffffffffff600160a01b909104811690831661062a565b9392505050565b6000546001600160a01b0316331461044e576040516282b42960e81b815260040160405180910390fd5b6001600160a01b038116600081815260016020526040808220805466ffffffffffff0019169055517f99166f1af97525e8d2ff282bc45ec451cefae413f9f0ba4a4869e5537750d2989190a250565b6000546001600160a01b0316156104ec5760405162461bcd60e51b8152602060048201526013602482015272105b1c9958591e481a5b9a5d1a585b1a5e9959606a1b60448201526064016101e8565b600080546001600160a01b0319166001600160a01b03841617905561051081610514565b5050565b603c65ffffffffffff8216101561054f576040516392229dd760e01b815265ffffffffffff82166004820152603c60248201526044016101e8565b6000805465ffffffffffff909216600160a01b0265ffffffffffff60a01b19909216919091179055565b803565ffffffffffff8116811461058f57600080fd5b919050565b6000602082840312156105a657600080fd5b61041d82610579565b80356001600160a01b038116811461058f57600080fd5b6000602082840312156105d857600080fd5b61041d826105af565b600080604083850312156105f457600080fd5b6105fd836105af565b915061060b60208401610579565b90509250929050565b634e487b7160e01b600052601160045260246000fd5b8082018082111561063d5761063d610614565b92915050565b65ffffffffffff81811683821601908082111561066257610662610614565b509291505056fea26469706673582212202dbe973b9d360cda416c909fca55f8c7074c58831d4e9819fa59e094d705363964736f6c63430008140033","opcodes":"PUSH1 0x80 PUSH1 0x40 MSTORE CALLVALUE DUP1 ISZERO PUSH2 0x10 JUMPI PUSH1 0x0 DUP1 REVERT JUMPDEST POP PUSH1 0x40 MLOAD PUSH2 0x796 CODESIZE SUB DUP1 PUSH2 0x796 DUP4 CODECOPY DUP2 ADD PUSH1 0x40 DUP2 SWAP1 MSTORE PUSH2 0x2F SWAP2 PUSH2 0xB9 JUMP JUMPDEST PUSH2 0x38 DUP2 PUSH2 0x50 JUMP JUMPDEST POP PUSH1 0x0 DUP1 SLOAD PUSH1 0x1 PUSH1 0x1 PUSH1 0xA0 SHL SUB NOT AND CALLER OR SWAP1 SSTORE PUSH2 0xE8 JUMP JUMPDEST PUSH1 0x3C PUSH6 0xFFFFFFFFFFFF DUP3 AND LT ISZERO PUSH2 0x8F JUMPI PUSH1 0x40 MLOAD PUSH4 0x92229DD7 PUSH1 0xE0 SHL DUP2 MSTORE PUSH6 0xFFFFFFFFFFFF DUP3 AND PUSH1 0x4 DUP3 ADD MSTORE PUSH1 0x3C PUSH1 0x24 DUP3 ADD MSTORE PUSH1 0x44 ADD PUSH1 0x40 MLOAD DUP1 SWAP2 SUB SWAP1 REVERT JUMPDEST PUSH1 0x0 DUP1 SLOAD PUSH6 0xFFFFFFFFFFFF SWAP1 SWAP3 AND PUSH1 0x1 PUSH1 0xA0 SHL MUL PUSH6 0xFFFFFFFFFFFF PUSH1 0xA0 SHL NOT SWAP1 SWAP3 AND SWAP2 SWAP1 SWAP2 OR SWAP1 SSTORE JUMP JUMPDEST PUSH1 0x0 PUSH1 0x20 DUP3 DUP5 SUB SLT ISZERO PUSH2 0xCB JUMPI PUSH1 0x0 DUP1 REVERT JUMPDEST DUP2 MLOAD PUSH6 0xFFFFFFFFFFFF DUP2 AND DUP2 EQ PUSH2 0xE1 JUMPI PUSH1 0x0 DUP1 REVERT JUMPDEST SWAP4 SWAP3 POP POP POP JUMP JUMPDEST PUSH2 0x69F DUP1 PUSH2 0xF7 PUSH1 0x0 CODECOPY PUSH1 0x0 RETURN INVALID PUSH1 0x80 PUSH1 0x40 MSTORE CALLVALUE DUP1 ISZERO PUSH2 0x10 JUMPI PUSH1 0x0 DUP1 REVERT JUMPDEST POP PUSH1 0x4 CALLDATASIZE LT PUSH2 0x93 JUMPI PUSH1 0x0 CALLDATALOAD PUSH1 0xE0 SHR DUP1 PUSH4 0x9891AF6E GT PUSH2 0x66 JUMPI DUP1 PUSH4 0x9891AF6E EQ PUSH2 0x130 JUMPI DUP1 PUSH4 0xB9A4E571 EQ PUSH2 0x138 JUMPI DUP1 PUSH4 0xEF93A6B4 EQ PUSH2 0x159 JUMPI DUP1 PUSH4 0xF4B9786C EQ PUSH2 0x16C JUMPI DUP1 PUSH4 0xF714CB44 EQ PUSH2 0x17F JUMPI PUSH1 0x0 DUP1 REVERT JUMPDEST DUP1 PUSH4 0x4646A49 EQ PUSH2 0x98 JUMPI DUP1 PUSH4 0x5C361C3C EQ PUSH2 0xCD JUMPI DUP1 PUSH4 0x8DA5CB5B EQ PUSH2 0xE2 JUMPI DUP1 PUSH4 0x9211DDEB EQ PUSH2 0x10D JUMPI JUMPDEST PUSH1 0x0 DUP1 REVERT JUMPDEST PUSH1 0x0 SLOAD PUSH2 0xB1 SWAP1 PUSH1 0x1 PUSH1 0xA0 SHL SWAP1 DIV PUSH6 0xFFFFFFFFFFFF AND DUP2 JUMP JUMPDEST PUSH1 0x40 MLOAD PUSH6 0xFFFFFFFFFFFF SWAP1 SWAP2 AND DUP2 MSTORE PUSH1 0x20 ADD JUMPDEST PUSH1 0x40 MLOAD DUP1 SWAP2 SUB SWAP1 RETURN JUMPDEST PUSH2 0xE0 PUSH2 0xDB CALLDATASIZE PUSH1 0x4 PUSH2 0x594 JUMP JUMPDEST PUSH2 0x187 JUMP JUMPDEST STOP JUMPDEST PUSH1 0x0 SLOAD PUSH2 0xF5 SWAP1 PUSH1 0x1 PUSH1 0x1 PUSH1 0xA0 SHL SUB AND DUP2 JUMP JUMPDEST PUSH1 0x40 MLOAD PUSH1 0x1 PUSH1 0x1 PUSH1 0xA0 SHL SUB SWAP1 SWAP2 AND DUP2 MSTORE PUSH1 0x20 ADD PUSH2 0xC4 JUMP JUMPDEST PUSH2 0x120 PUSH2 0x11B CALLDATASIZE PUSH1 0x4 PUSH2 0x5C6 JUMP JUMPDEST PUSH2 0x268 JUMP JUMPDEST PUSH1 0x40 MLOAD SWAP1 ISZERO ISZERO DUP2 MSTORE PUSH1 0x20 ADD PUSH2 0xC4 JUMP JUMPDEST PUSH2 0xE0 PUSH2 0x2C7 JUMP JUMPDEST PUSH2 0x14B PUSH2 0x146 CALLDATASIZE PUSH1 0x4 PUSH2 0x5C6 JUMP JUMPDEST PUSH2 0x3C7 JUMP JUMPDEST PUSH1 0x40 MLOAD SWAP1 DUP2 MSTORE PUSH1 0x20 ADD PUSH2 0xC4 JUMP JUMPDEST PUSH2 0xE0 PUSH2 0x167 CALLDATASIZE PUSH1 0x4 PUSH2 0x5C6 JUMP JUMPDEST PUSH2 0x424 JUMP JUMPDEST PUSH2 0xE0 PUSH2 0x17A CALLDATASIZE PUSH1 0x4 PUSH2 0x5E1 JUMP JUMPDEST PUSH2 0x49D JUMP JUMPDEST PUSH2 0xB1 PUSH1 0x3C DUP2 JUMP JUMPDEST PUSH1 0x0 SLOAD PUSH1 0x1 PUSH1 0x1 PUSH1 0xA0 SHL SUB AND CALLER EQ PUSH2 0x1B1 JUMPI PUSH1 0x40 MLOAD PUSH3 0x82B429 PUSH1 0xE8 SHL DUP2 MSTORE PUSH1 0x4 ADD PUSH1 0x40 MLOAD DUP1 SWAP2 SUB SWAP1 REVERT JUMPDEST PUSH1 0x3C PUSH6 0xFFFFFFFFFFFF DUP3 AND LT ISZERO PUSH2 0x1F1 JUMPI PUSH1 0x40 MLOAD PUSH4 0x92229DD7 PUSH1 0xE0 SHL DUP2 MSTORE PUSH6 0xFFFFFFFFFFFF DUP3 AND PUSH1 0x4 DUP3 ADD MSTORE PUSH1 0x3C PUSH1 0x24 DUP3 ADD MSTORE PUSH1 0x44 ADD JUMPDEST PUSH1 0x40 MLOAD DUP1 SWAP2 SUB SWAP1 REVERT JUMPDEST PUSH1 0x0 SLOAD PUSH1 0x40 DUP1 MLOAD PUSH6 0xFFFFFFFFFFFF PUSH1 0x1 PUSH1 0xA0 SHL SWAP1 SWAP4 DIV DUP4 AND DUP2 MSTORE SWAP2 DUP4 AND PUSH1 0x20 DUP4 ADD MSTORE PUSH32 0xF38153DEF352D935951283D8742AF413216ED5B8E8D679C69A1251F14C0A82E3 SWAP2 ADD PUSH1 0x40 MLOAD DUP1 SWAP2 SUB SWAP1 LOG1 PUSH1 0x0 DUP1 SLOAD PUSH6 0xFFFFFFFFFFFF SWAP1 SWAP3 AND PUSH1 0x1 PUSH1 0xA0 SHL MUL PUSH6 0xFFFFFFFFFFFF PUSH1 0xA0 SHL NOT SWAP1 SWAP3 AND SWAP2 SWAP1 SWAP2 OR SWAP1 SSTORE JUMP JUMPDEST PUSH1 0x1 PUSH1 0x1 PUSH1 0xA0 SHL SUB DUP2 AND PUSH1 0x0 SWAP1 DUP2 MSTORE PUSH1 0x1 PUSH1 0x20 MSTORE PUSH1 0x40 DUP2 KECCAK256 SLOAD PUSH2 0x100 SWAP1 DIV PUSH6 0xFFFFFFFFFFFF AND DUP1 DUP3 SUB PUSH2 0x29E JUMPI POP PUSH1 0x0 SWAP3 SWAP2 POP POP JUMP JUMPDEST PUSH1 0x0 SLOAD PUSH2 0x2BE SWAP1 PUSH6 0xFFFFFFFFFFFF PUSH1 0x1 PUSH1 0xA0 SHL SWAP1 SWAP2 DIV DUP2 AND SWAP1 DUP4 AND PUSH2 0x62A JUMP JUMPDEST TIMESTAMP LT SWAP4 SWAP3 POP POP POP JUMP JUMPDEST CALLER PUSH1 0x0 SWAP1 DUP2 MSTORE PUSH1 0x1 PUSH1 0x20 MSTORE PUSH1 0x40 DUP2 KECCAK256 DUP1 SLOAD SWAP2 SLOAD SWAP1 SWAP2 TIMESTAMP SWAP2 PUSH6 0xFFFFFFFFFFFF PUSH2 0x100 SWAP1 SWAP3 DIV DUP3 AND SWAP2 PUSH1 0x1 PUSH1 0xA0 SHL SWAP1 SWAP2 DIV AND DUP2 ISZERO DUP1 ISZERO SWAP1 PUSH2 0x31E JUMPI POP PUSH2 0x30B DUP2 DUP4 PUSH2 0x643 JUMP JUMPDEST PUSH6 0xFFFFFFFFFFFF AND DUP4 PUSH6 0xFFFFFFFFFFFF AND LT JUMPDEST ISZERO PUSH2 0x354 JUMPI PUSH2 0x338 PUSH6 0xFFFFFFFFFFFF DUP1 DUP4 AND SWAP1 DUP5 AND PUSH2 0x62A JUMP JUMPDEST PUSH1 0x40 MLOAD PUSH4 0xE3C9F055 PUSH1 0xE0 SHL DUP2 MSTORE PUSH1 0x4 ADD PUSH2 0x1E8 SWAP2 DUP2 MSTORE PUSH1 0x20 ADD SWAP1 JUMP JUMPDEST DUP4 SLOAD PUSH1 0xFF NOT PUSH6 0xFFFFFFFFFFFF DUP6 AND PUSH2 0x100 MUL AND PUSH7 0xFFFFFFFFFFFFFF NOT SWAP1 SWAP2 AND OR PUSH1 0x1 OR DUP5 SSTORE PUSH1 0x40 MLOAD CALLER SWAP1 PUSH32 0xA6FDE7B1A6394E495FD548ECB7643768D9A7C0ADC1AFDBE94F3C3E2C81E664A6 SWAP1 PUSH2 0x3B9 SWAP1 DUP7 SWAP1 PUSH6 0xFFFFFFFFFFFF SWAP2 SWAP1 SWAP2 AND DUP2 MSTORE PUSH1 0x20 ADD SWAP1 JUMP JUMPDEST PUSH1 0x40 MLOAD DUP1 SWAP2 SUB SWAP1 LOG2 POP POP POP POP JUMP JUMPDEST PUSH1 0x1 PUSH1 0x1 PUSH1 0xA0 SHL SUB DUP2 AND PUSH1 0x0 SWAP1 DUP2 MSTORE PUSH1 0x1 PUSH1 0x20 MSTORE PUSH1 0x40 DUP2 KECCAK256 SLOAD PUSH2 0x100 SWAP1 DIV PUSH6 0xFFFFFFFFFFFF AND DUP1 DUP3 SUB PUSH2 0x3FD JUMPI POP PUSH1 0x0 SWAP3 SWAP2 POP POP JUMP JUMPDEST PUSH1 0x0 SLOAD PUSH2 0x41D SWAP1 PUSH6 0xFFFFFFFFFFFF PUSH1 0x1 PUSH1 0xA0 SHL SWAP1 SWAP2 DIV DUP2 AND SWAP1 DUP4 AND PUSH2 0x62A JUMP JUMPDEST SWAP4 SWAP3 POP POP POP JUMP JUMPDEST PUSH1 0x0 SLOAD PUSH1 0x1 PUSH1 0x1 PUSH1 0xA0 SHL SUB AND CALLER EQ PUSH2 0x44E JUMPI PUSH1 0x40 MLOAD PUSH3 0x82B429 PUSH1 0xE8 SHL DUP2 MSTORE PUSH1 0x4 ADD PUSH1 0x40 MLOAD DUP1 SWAP2 SUB SWAP1 REVERT JUMPDEST PUSH1 0x1 PUSH1 0x1 PUSH1 0xA0 SHL SUB DUP2 AND PUSH1 0x0 DUP2 DUP2 MSTORE PUSH1 0x1 PUSH1 0x20 MSTORE PUSH1 0x40 DUP1 DUP3 KECCAK256 DUP1 SLOAD PUSH7 0xFFFFFFFFFFFF00 NOT AND SWAP1 SSTORE MLOAD PUSH32 0x99166F1AF97525E8D2FF282BC45EC451CEFAE413F9F0BA4A4869E5537750D298 SWAP2 SWAP1 LOG2 POP JUMP JUMPDEST PUSH1 0x0 SLOAD PUSH1 0x1 PUSH1 0x1 PUSH1 0xA0 SHL SUB AND ISZERO PUSH2 0x4EC JUMPI PUSH1 0x40 MLOAD PUSH3 0x461BCD PUSH1 0xE5 SHL DUP2 MSTORE PUSH1 0x20 PUSH1 0x4 DUP3 ADD MSTORE PUSH1 0x13 PUSH1 0x24 DUP3 ADD MSTORE PUSH19 0x105B1C9958591E481A5B9A5D1A585B1A5E9959 PUSH1 0x6A SHL PUSH1 0x44 DUP3 ADD MSTORE PUSH1 0x64 ADD PUSH2 0x1E8 JUMP JUMPDEST PUSH1 0x0 DUP1 SLOAD PUSH1 0x1 PUSH1 0x1 PUSH1 0xA0 SHL SUB NOT AND PUSH1 0x1 PUSH1 0x1 PUSH1 0xA0 SHL SUB DUP5 AND OR SWAP1 SSTORE PUSH2 0x510 DUP2 PUSH2 0x514 JUMP JUMPDEST POP POP JUMP JUMPDEST PUSH1 0x3C PUSH6 0xFFFFFFFFFFFF DUP3 AND LT ISZERO PUSH2 0x54F JUMPI PUSH1 0x40 MLOAD PUSH4 0x92229DD7 PUSH1 0xE0 SHL DUP2 MSTORE PUSH6 0xFFFFFFFFFFFF DUP3 AND PUSH1 0x4 DUP3 ADD MSTORE PUSH1 0x3C PUSH1 0x24 DUP3 ADD MSTORE PUSH1 0x44 ADD PUSH2 0x1E8 JUMP JUMPDEST PUSH1 0x0 DUP1 SLOAD PUSH6 0xFFFFFFFFFFFF SWAP1 SWAP3 AND PUSH1 0x1 PUSH1 0xA0 SHL MUL PUSH6 0xFFFFFFFFFFFF PUSH1 0xA0 SHL NOT SWAP1 SWAP3 AND SWAP2 SWAP1 SWAP2 OR SWAP1 SSTORE JUMP JUMPDEST DUP1 CALLDATALOAD PUSH6 0xFFFFFFFFFFFF DUP2 AND DUP2 EQ PUSH2 0x58F JUMPI PUSH1 0x0 DUP1 REVERT JUMPDEST SWAP2 SWAP1 POP JUMP JUMPDEST PUSH1 0x0 PUSH1 0x20 DUP3 DUP5 SUB SLT ISZERO PUSH2 0x5A6 JUMPI PUSH1 0x0 DUP1 REVERT JUMPDEST PUSH2 0x41D DUP3 PUSH2 0x579 JUMP JUMPDEST DUP1 CALLDATALOAD PUSH1 0x1 PUSH1 0x1 PUSH1 0xA0 SHL SUB DUP2 AND DUP2 EQ PUSH2 0x58F JUMPI PUSH1 0x0 DUP1 REVERT JUMPDEST PUSH1 0x0 PUSH1 0x20 DUP3 DUP5 SUB SLT ISZERO PUSH2 0x5D8 JUMPI PUSH1 0x0 DUP1 REVERT JUMPDEST PUSH2 0x41D DUP3 PUSH2 0x5AF JUMP JUMPDEST PUSH1 0x0 DUP1 PUSH1 0x40 DUP4 DUP6 SUB SLT ISZERO PUSH2 0x5F4 JUMPI PUSH1 0x0 DUP1 REVERT JUMPDEST PUSH2 0x5FD DUP4 PUSH2 0x5AF JUMP JUMPDEST SWAP2 POP PUSH2 0x60B PUSH1 0x20 DUP5 ADD PUSH2 0x579 JUMP JUMPDEST SWAP1 POP SWAP3 POP SWAP3 SWAP1 POP JUMP JUMPDEST PUSH4 0x4E487B71 PUSH1 0xE0 SHL PUSH1 0x0 MSTORE PUSH1 0x11 PUSH1 0x4 MSTORE PUSH1 0x24 PUSH1 0x0 REVERT JUMPDEST DUP1 DUP3 ADD DUP1 DUP3 GT ISZERO PUSH2 0x63D JUMPI PUSH2 0x63D PUSH2 0x614 JUMP JUMPDEST SWAP3 SWAP2 POP POP JUMP JUMPDEST PUSH6 0xFFFFFFFFFFFF DUP2 DUP2 AND DUP4 DUP3 AND ADD SWAP1 DUP1 DUP3 GT ISZERO PUSH2 0x662 JUMPI PUSH2 0x662 PUSH2 0x614 JUMP JUMPDEST POP SWAP3 SWAP2 POP POP JUMP INVALID LOG2 PUSH5 0x6970667358 0x22 SLT KECCAK256 0x2D 0xBE SWAP8 EXTCODESIZE SWAP14 CALLDATASIZE 0xC 0xDA COINBASE PUSH13 0x909FCA55F8C7074C58831D4E98 NOT STATICCALL MSIZE 0xE0 SWAP5 0xD7 SDIV CALLDATASIZE CODECOPY PUSH5 0x736F6C6343 STOP ADDMOD EQ STOP CALLER "},"methodIdentifiers":{"MIN_COOLDOWN()":"f714cb44","attemptRenewal()":"9891af6e","cooldownPeriod()":"04646a49","initialize(address,uint48)":"f4b9786c","isInCooldown(address)":"9211ddeb","nextRenewalTimestamp(address)":"b9a4e571","owner()":"8da5cb5b","resetCooldown(address)":"ef93a6b4","setCooldownPeriod(uint48)":"5c361c3c"}}}}}